{
  "address": "0x5FbDB2315678afecb367f032d93F642f64180aa3",
  "abi": [
    {
      "inputs": [],
      "stateMutability": "nonpayable",
      "type": "constructor"
    },
    {
      "inputs": [
        {
          "internalType": "address",
          "name": "nftAddress",
          "type": "address"
        },
        {
          "internalType": "uint256",
          "name": "tokenId",
          "type": "uint256"
        }
      ],
      "name": "AlreadyListed",
      "type": "error"
    },
    {
      "inputs": [
        {
          "internalType": "address",
          "name": "nftAddress",
          "type": "address"
        },
        {
          "internalType": "uint256",
          "name": "tokenId",
          "type": "uint256"
        }
      ],
      "name": "ItemNotForSale",
      "type": "error"
    },
    {
      "inputs": [],
      "name": "NoProceeds",
      "type": "error"
    },
    {
      "inputs": [
        {
          "internalType": "address",
          "name": "nftAddress",
          "type": "address"
        },
        {
          "internalType": "uint256",
          "name": "tokenId",
          "type": "uint256"
        }
      ],
      "name": "NotListed",
      "type": "error"
    },
    {
      "inputs": [],
      "name": "NotOwner",
      "type": "error"
    },
    {
      "inputs": [],
      "name": "PriceMustBeAboveZero",
      "type": "error"
    },
    {
      "inputs": [
        {
          "internalType": "address",
          "name": "nftAddress",
          "type": "address"
        },
        {
          "internalType": "uint256",
          "name": "tokenId",
          "type": "uint256"
        },
        {
          "internalType": "uint256",
          "name": "price",
          "type": "uint256"
        }
      ],
      "name": "PriceNotMet",
      "type": "error"
    },
    {
      "anonymous": false,
      "inputs": [
        {
          "indexed": true,
          "internalType": "address",
          "name": "owner",
          "type": "address"
        },
        {
          "indexed": true,
          "internalType": "address",
          "name": "approved",
          "type": "address"
        },
        {
          "indexed": true,
          "internalType": "uint256",
          "name": "tokenId",
          "type": "uint256"
        }
      ],
      "name": "Approval",
      "type": "event"
    },
    {
      "anonymous": false,
      "inputs": [
        {
          "indexed": true,
          "internalType": "address",
          "name": "owner",
          "type": "address"
        },
        {
          "indexed": true,
          "internalType": "address",
          "name": "operator",
          "type": "address"
        },
        {
          "indexed": false,
          "internalType": "bool",
          "name": "approved",
          "type": "bool"
        }
      ],
      "name": "ApprovalForAll",
      "type": "event"
    },
    {
      "anonymous": false,
      "inputs": [
        {
          "indexed": true,
          "internalType": "address",
          "name": "seller",
          "type": "address"
        },
        {
          "indexed": true,
          "internalType": "address",
          "name": "nftAddress",
          "type": "address"
        },
        {
          "indexed": true,
          "internalType": "uint256",
          "name": "tokenId",
          "type": "uint256"
        }
      ],
      "name": "ItemCanceled",
      "type": "event"
    },
    {
      "anonymous": false,
      "inputs": [
        {
          "indexed": true,
          "internalType": "address",
          "name": "seller",
          "type": "address"
        },
        {
          "indexed": true,
          "internalType": "uint256",
          "name": "tokenId",
          "type": "uint256"
        },
        {
          "indexed": false,
          "internalType": "uint256",
          "name": "price",
          "type": "uint256"
        }
      ],
      "name": "NFTItemListed",
      "type": "event"
    },
    {
      "anonymous": false,
      "inputs": [
        {
          "indexed": true,
          "internalType": "address",
          "name": "owner",
          "type": "address"
        },
        {
          "indexed": false,
          "internalType": "uint256",
          "name": "tokenId",
          "type": "uint256"
        }
      ],
      "name": "NFTItemMinted",
      "type": "event"
    },
    {
      "anonymous": false,
      "inputs": [
        {
          "indexed": true,
          "internalType": "address",
          "name": "buyer",
          "type": "address"
        },
        {
          "indexed": true,
          "internalType": "address",
          "name": "seller",
          "type": "address"
        },
        {
          "indexed": false,
          "internalType": "uint256",
          "name": "tokenId",
          "type": "uint256"
        },
        {
          "indexed": false,
          "internalType": "uint256",
          "name": "price",
          "type": "uint256"
        }
      ],
      "name": "NFTItemSold",
      "type": "event"
    },
    {
      "anonymous": false,
      "inputs": [
        {
          "indexed": true,
          "internalType": "address",
          "name": "previousOwner",
          "type": "address"
        },
        {
          "indexed": true,
          "internalType": "address",
          "name": "newOwner",
          "type": "address"
        }
      ],
      "name": "OwnershipTransferred",
      "type": "event"
    },
    {
      "anonymous": false,
      "inputs": [
        {
          "indexed": true,
          "internalType": "address",
          "name": "from",
          "type": "address"
        },
        {
          "indexed": true,
          "internalType": "address",
          "name": "to",
          "type": "address"
        },
        {
          "indexed": true,
          "internalType": "uint256",
          "name": "tokenId",
          "type": "uint256"
        }
      ],
      "name": "Transfer",
      "type": "event"
    },
    {
      "inputs": [],
      "name": "MAX_SUPPLY",
      "outputs": [
        {
          "internalType": "uint256",
          "name": "",
          "type": "uint256"
        }
      ],
      "stateMutability": "view",
      "type": "function"
    },
    {
      "inputs": [
        {
          "internalType": "address",
          "name": "to",
          "type": "address"
        },
        {
          "internalType": "uint256",
          "name": "tokenId",
          "type": "uint256"
        }
      ],
      "name": "approve",
      "outputs": [],
      "stateMutability": "nonpayable",
      "type": "function"
    },
    {
      "inputs": [
        {
          "internalType": "address",
          "name": "owner",
          "type": "address"
        }
      ],
      "name": "balanceOf",
      "outputs": [
        {
          "internalType": "uint256",
          "name": "",
          "type": "uint256"
        }
      ],
      "stateMutability": "view",
      "type": "function"
    },
    {
      "inputs": [
        {
          "internalType": "uint256",
          "name": "tokenId",
          "type": "uint256"
        }
      ],
      "name": "buyNFT",
      "outputs": [],
      "stateMutability": "payable",
      "type": "function"
    },
    {
      "inputs": [
        {
          "internalType": "uint256",
          "name": "tokenId",
          "type": "uint256"
        }
      ],
      "name": "cancelListing",
      "outputs": [],
      "stateMutability": "nonpayable",
      "type": "function"
    },
    {
      "inputs": [
        {
          "internalType": "uint256",
          "name": "tokenId",
          "type": "uint256"
        }
      ],
      "name": "getApproved",
      "outputs": [
        {
          "internalType": "address",
          "name": "",
          "type": "address"
        }
      ],
      "stateMutability": "view",
      "type": "function"
    },
    {
      "inputs": [
        {
          "internalType": "address",
          "name": "nftAddress",
          "type": "address"
        },
        {
          "internalType": "uint256",
          "name": "tokenId",
          "type": "uint256"
        }
      ],
      "name": "getListing",
      "outputs": [
        {
          "components": [
            {
              "internalType": "uint256",
              "name": "price",
              "type": "uint256"
            },
            {
              "internalType": "address",
              "name": "seller",
              "type": "address"
            }
          ],
          "internalType": "struct NFTMarketplace.Listing",
          "name": "",
          "type": "tuple"
        }
      ],
      "stateMutability": "view",
      "type": "function"
    },
    {
      "inputs": [
        {
          "internalType": "address",
          "name": "seller",
          "type": "address"
        }
      ],
      "name": "getProceeds",
      "outputs": [
        {
          "internalType": "uint256",
          "name": "",
          "type": "uint256"
        }
      ],
      "stateMutability": "view",
      "type": "function"
    },
    {
      "inputs": [
        {
          "internalType": "address",
          "name": "owner",
          "type": "address"
        },
        {
          "internalType": "address",
          "name": "operator",
          "type": "address"
        }
      ],
      "name": "isApprovedForAll",
      "outputs": [
        {
          "internalType": "bool",
          "name": "",
          "type": "bool"
        }
      ],
      "stateMutability": "view",
      "type": "function"
    },
    {
      "inputs": [
        {
          "internalType": "uint256",
          "name": "tokenId",
          "type": "uint256"
        },
        {
          "internalType": "uint256",
          "name": "price",
          "type": "uint256"
        }
      ],
      "name": "listNFT",
      "outputs": [],
      "stateMutability": "nonpayable",
      "type": "function"
    },
    {
      "inputs": [],
      "name": "mintNFT",
      "outputs": [],
      "stateMutability": "nonpayable",
      "type": "function"
    },
    {
      "inputs": [],
      "name": "name",
      "outputs": [
        {
          "internalType": "string",
          "name": "",
          "type": "string"
        }
      ],
      "stateMutability": "view",
      "type": "function"
    },
    {
      "inputs": [],
      "name": "owner",
      "outputs": [
        {
          "internalType": "address",
          "name": "",
          "type": "address"
        }
      ],
      "stateMutability": "view",
      "type": "function"
    },
    {
      "inputs": [
        {
          "internalType": "uint256",
          "name": "tokenId",
          "type": "uint256"
        }
      ],
      "name": "ownerOf",
      "outputs": [
        {
          "internalType": "address",
          "name": "",
          "type": "address"
        }
      ],
      "stateMutability": "view",
      "type": "function"
    },
    {
      "inputs": [],
      "name": "renounceOwnership",
      "outputs": [],
      "stateMutability": "nonpayable",
      "type": "function"
    },
    {
      "inputs": [
        {
          "internalType": "address",
          "name": "from",
          "type": "address"
        },
        {
          "internalType": "address",
          "name": "to",
          "type": "address"
        },
        {
          "internalType": "uint256",
          "name": "tokenId",
          "type": "uint256"
        }
      ],
      "name": "safeTransferFrom",
      "outputs": [],
      "stateMutability": "nonpayable",
      "type": "function"
    },
    {
      "inputs": [
        {
          "internalType": "address",
          "name": "from",
          "type": "address"
        },
        {
          "internalType": "address",
          "name": "to",
          "type": "address"
        },
        {
          "internalType": "uint256",
          "name": "tokenId",
          "type": "uint256"
        },
        {
          "internalType": "bytes",
          "name": "data",
          "type": "bytes"
        }
      ],
      "name": "safeTransferFrom",
      "outputs": [],
      "stateMutability": "nonpayable",
      "type": "function"
    },
    {
      "inputs": [
        {
          "internalType": "address",
          "name": "operator",
          "type": "address"
        },
        {
          "internalType": "bool",
          "name": "approved",
          "type": "bool"
        }
      ],
      "name": "setApprovalForAll",
      "outputs": [],
      "stateMutability": "nonpayable",
      "type": "function"
    },
    {
      "inputs": [
        {
          "internalType": "bytes4",
          "name": "interfaceId",
          "type": "bytes4"
        }
      ],
      "name": "supportsInterface",
      "outputs": [
        {
          "internalType": "bool",
          "name": "",
          "type": "bool"
        }
      ],
      "stateMutability": "view",
      "type": "function"
    },
    {
      "inputs": [],
      "name": "symbol",
      "outputs": [
        {
          "internalType": "string",
          "name": "",
          "type": "string"
        }
      ],
      "stateMutability": "view",
      "type": "function"
    },
    {
      "inputs": [],
      "name": "tokenCount",
      "outputs": [
        {
          "internalType": "uint256",
          "name": "",
          "type": "uint256"
        }
      ],
      "stateMutability": "view",
      "type": "function"
    },
    {
      "inputs": [
        {
          "internalType": "uint256",
          "name": "",
          "type": "uint256"
        }
      ],
      "name": "tokenPrices",
      "outputs": [
        {
          "internalType": "uint256",
          "name": "",
          "type": "uint256"
        }
      ],
      "stateMutability": "view",
      "type": "function"
    },
    {
      "inputs": [
        {
          "internalType": "uint256",
          "name": "tokenId",
          "type": "uint256"
        }
      ],
      "name": "tokenURI",
      "outputs": [
        {
          "internalType": "string",
          "name": "",
          "type": "string"
        }
      ],
      "stateMutability": "view",
      "type": "function"
    },
    {
      "inputs": [
        {
          "internalType": "address",
          "name": "from",
          "type": "address"
        },
        {
          "internalType": "address",
          "name": "to",
          "type": "address"
        },
        {
          "internalType": "uint256",
          "name": "tokenId",
          "type": "uint256"
        }
      ],
      "name": "transferFrom",
      "outputs": [],
      "stateMutability": "nonpayable",
      "type": "function"
    },
    {
      "inputs": [
        {
          "internalType": "address",
          "name": "newOwner",
          "type": "address"
        }
      ],
      "name": "transferOwnership",
      "outputs": [],
      "stateMutability": "nonpayable",
      "type": "function"
    },
    {
      "inputs": [
        {
          "internalType": "address",
          "name": "nftAddress",
          "type": "address"
        },
        {
          "internalType": "uint256",
          "name": "tokenId",
          "type": "uint256"
        },
        {
          "internalType": "uint256",
          "name": "newPrice",
          "type": "uint256"
        }
      ],
      "name": "updateListing",
      "outputs": [],
      "stateMutability": "nonpayable",
      "type": "function"
    }
  ],
  "transactionHash": "0x125356d40f9d7eb7682bb67fbca344f154acdcef2a1190ca6afe6aa8b407dc93",
  "args": [],
  "numDeployments": 1,
  "solcInputHash": "6e377b6298199af443c433fbfc98e415",
  "bytecode": "0x608060405234801561001057600080fd5b506040518060400160405280600f81526020017f4e4654204d61726b6574706c61636500000000000000000000000000000000008152506040518060400160405280600481526020017f4e46544d00000000000000000000000000000000000000000000000000000000815250816000908161008c91906103e6565b50806001908161009c91906103e6565b5050506100bb6100b06100c860201b60201c565b6100d060201b60201c565b60016007819055506104b8565b600033905090565b6000600660009054906101000a900473ffffffffffffffffffffffffffffffffffffffff16905081600660006101000a81548173ffffffffffffffffffffffffffffffffffffffff021916908373ffffffffffffffffffffffffffffffffffffffff1602179055508173ffffffffffffffffffffffffffffffffffffffff168173ffffffffffffffffffffffffffffffffffffffff167f8be0079c531659141344cd1fd0a4f28419497f9722a3daafe3b4186f6b6457e060405160405180910390a35050565b600081519050919050565b7f4e487b7100000000000000000000000000000000000000000000000000000000600052604160045260246000fd5b7f4e487b7100000000000000000000000000000000000000000000000000000000600052602260045260246000fd5b6000600282049050600182168061021757607f821691505b60208210810361022a576102296101d0565b5b50919050565b60008190508160005260206000209050919050565b60006020601f8301049050919050565b600082821b905092915050565b6000600883026102927fffffffffffffffffffffffffffffffffffffffffffffffffffffffffffffffff82610255565b61029c8683610255565b95508019841693508086168417925050509392505050565b6000819050919050565b6000819050919050565b60006102e36102de6102d9846102b4565b6102be565b6102b4565b9050919050565b6000819050919050565b6102fd836102c8565b610311610309826102ea565b848454610262565b825550505050565b600090565b610326610319565b6103318184846102f4565b505050565b5b818110156103555761034a60008261031e565b600181019050610337565b5050565b601f82111561039a5761036b81610230565b61037484610245565b81016020851015610383578190505b61039761038f85610245565b830182610336565b50505b505050565b600082821c905092915050565b60006103bd6000198460080261039f565b1980831691505092915050565b60006103d683836103ac565b9150826002028217905092915050565b6103ef82610196565b67ffffffffffffffff811115610408576104076101a1565b5b61041282546101ff565b61041d828285610359565b600060209050601f831160018114610450576000841561043e578287015190505b61044885826103ca565b8655506104b0565b601f19841661045e86610230565b60005b8281101561048657848901518255600182019150602085019450602081019050610461565b868310156104a3578489015161049f601f8916826103ac565b8355505b6001600288020188555050505b505050505050565b613876806104c76000396000f3fe6080604052600436106101815760003560e01c8063715018a6116100d1578063a22cb4651161008a578063e5afe3e611610064578063e5afe3e614610571578063e985e9c5146105ae578063f2fde38b146105eb578063f772adf11461061457610181565b8063a22cb465146104e2578063b88d4fde1461050b578063c87b56dd1461053457610181565b8063715018a6146103e457806388700d1c146103fb5780638da5cb5b1461043857806394383f141461046357806395d89b411461048c5780639f181b5e146104b757610181565b8063305a67a81161013e57806342842e0e1161011857806342842e0e1461032557806351ed82881461034e5780636352211e1461036a57806370a08231146103a757610181565b8063305a67a81461029457806330cfeda9146102bd57806332cb6b0c146102fa57610181565b806301ffc9a71461018657806306fdde03146101c3578063081812fc146101ee578063095ea7b31461022b57806314f710fe1461025457806323b872dd1461026b575b600080fd5b34801561019257600080fd5b506101ad60048036038101906101a891906127c7565b61063d565b6040516101ba919061280f565b60405180910390f35b3480156101cf57600080fd5b506101d861071f565b6040516101e591906128ba565b60405180910390f35b3480156101fa57600080fd5b5061021560048036038101906102109190612912565b6107b1565b6040516102229190612980565b60405180910390f35b34801561023757600080fd5b50610252600480360381019061024d91906129c7565b6107f7565b005b34801561026057600080fd5b5061026961090e565b005b34801561027757600080fd5b50610292600480360381019061028d9190612a07565b6109d0565b005b3480156102a057600080fd5b506102bb60048036038101906102b69190612912565b610a30565b005b3480156102c957600080fd5b506102e460048036038101906102df9190612a5a565b610c8c565b6040516102f19190612a96565b60405180910390f35b34801561030657600080fd5b5061030f610cd5565b60405161031c9190612a96565b60405180910390f35b34801561033157600080fd5b5061034c60048036038101906103479190612a07565b610cdb565b005b61036860048036038101906103639190612912565b610cfb565b005b34801561037657600080fd5b50610391600480360381019061038c9190612912565b610ef4565b60405161039e9190612980565b60405180910390f35b3480156103b357600080fd5b506103ce60048036038101906103c99190612a5a565b610f7a565b6040516103db9190612a96565b60405180910390f35b3480156103f057600080fd5b506103f9611031565b005b34801561040757600080fd5b50610422600480360381019061041d91906129c7565b611045565b60405161042f9190612afe565b60405180910390f35b34801561044457600080fd5b5061044d611110565b60405161045a9190612980565b60405180910390f35b34801561046f57600080fd5b5061048a60048036038101906104859190612b19565b61113a565b005b34801561049857600080fd5b506104a16112a7565b6040516104ae91906128ba565b60405180910390f35b3480156104c357600080fd5b506104cc611339565b6040516104d99190612a96565b60405180910390f35b3480156104ee57600080fd5b5061050960048036038101906105049190612b85565b61133f565b005b34801561051757600080fd5b50610532600480360381019061052d9190612cfa565b611355565b005b34801561054057600080fd5b5061055b60048036038101906105569190612912565b6113b7565b60405161056891906128ba565b60405180910390f35b34801561057d57600080fd5b5061059860048036038101906105939190612912565b61141f565b6040516105a59190612a96565b60405180910390f35b3480156105ba57600080fd5b506105d560048036038101906105d09190612d7d565b611437565b6040516105e2919061280f565b60405180910390f35b3480156105f757600080fd5b50610612600480360381019061060d9190612a5a565b6114cb565b005b34801561062057600080fd5b5061063b60048036038101906106369190612dbd565b61154e565b005b60007f80ac58cd000000000000000000000000000000000000000000000000000000007bffffffffffffffffffffffffffffffffffffffffffffffffffffffff1916827bffffffffffffffffffffffffffffffffffffffffffffffffffffffff1916148061070857507f5b5e139f000000000000000000000000000000000000000000000000000000007bffffffffffffffffffffffffffffffffffffffffffffffffffffffff1916827bffffffffffffffffffffffffffffffffffffffffffffffffffffffff1916145b806107185750610717826117c0565b5b9050919050565b60606000805461072e90612e3f565b80601f016020809104026020016040519081016040528092919081815260200182805461075a90612e3f565b80156107a75780601f1061077c576101008083540402835291602001916107a7565b820191906000526020600020905b81548152906001019060200180831161078a57829003601f168201915b5050505050905090565b60006107bc8261182a565b6004600083815260200190815260200160002060009054906101000a900473ffffffffffffffffffffffffffffffffffffffff169050919050565b600061080282610ef4565b90508073ffffffffffffffffffffffffffffffffffffffff168373ffffffffffffffffffffffffffffffffffffffff1603610872576040517f08c379a000000000000000000000000000000000000000000000000000000000815260040161086990612ee2565b60405180910390fd5b8073ffffffffffffffffffffffffffffffffffffffff16610891611875565b73ffffffffffffffffffffffffffffffffffffffff1614806108c057506108bf816108ba611875565b611437565b5b6108ff576040517f08c379a00000000000000000000000000000000000000000000000000000000081526004016108f690612f74565b60405180910390fd5b610909838361187d565b505050565b6127106008541061095a57306008546040517f4a5568d5000000000000000000000000000000000000000000000000000000008152600401610951929190612f94565b60405180910390fd5b6008600081548092919061096d90612fec565b919050555061097e33600854611936565b3373ffffffffffffffffffffffffffffffffffffffff167f6da125ed0d103ed164c0dcfbbaf3343fd0ebbd58339c229043a40fc3eb0dd9196008546040516109c69190612a96565b60405180910390a2565b6109e16109db611875565b82611954565b610a20576040517f08c379a0000000000000000000000000000000000000000000000000000000008152600401610a17906130a6565b60405180910390fd5b610a2b8383836119e9565b505050565b803373ffffffffffffffffffffffffffffffffffffffff16610a5182610ef4565b73ffffffffffffffffffffffffffffffffffffffff1614610a9e576040517f30cd747100000000000000000000000000000000000000000000000000000000815260040160405180910390fd5b816000600a60003073ffffffffffffffffffffffffffffffffffffffff1673ffffffffffffffffffffffffffffffffffffffff1681526020019081526020016000206000838152602001908152602001600020604051806040016040529081600082015481526020016001820160009054906101000a900473ffffffffffffffffffffffffffffffffffffffff1673ffffffffffffffffffffffffffffffffffffffff1673ffffffffffffffffffffffffffffffffffffffff168152505090506000816000015111610ba95730826040517f6831488c000000000000000000000000000000000000000000000000000000008152600401610ba0929190612f94565b60405180910390fd5b600a60003073ffffffffffffffffffffffffffffffffffffffff1673ffffffffffffffffffffffffffffffffffffffff16815260200190815260200160002060008581526020019081526020016000206000808201600090556001820160006101000a81549073ffffffffffffffffffffffffffffffffffffffff02191690555050833073ffffffffffffffffffffffffffffffffffffffff163373ffffffffffffffffffffffffffffffffffffffff167f9ba1a3cb55ce8d63d072a886f94d2a744f50cddf82128e897d0661f5ec62315860405160405180910390a450505050565b6000600b60008373ffffffffffffffffffffffffffffffffffffffff1673ffffffffffffffffffffffffffffffffffffffff168152602001908152602001600020549050919050565b61271081565b610cf683838360405180602001604052806000815250611355565b505050565b610d03611ce2565b60006009600083815260200190815260200160002054905060008103610d625730826040517fc5d002b3000000000000000000000000000000000000000000000000000000008152600401610d59929190612f94565b60405180910390fd5b80341015610dab573082826040517f7c934565000000000000000000000000000000000000000000000000000000008152600401610da2939291906130c6565b60405180910390fd5b6000610db683610ef4565b9050610dc38133856119e9565b60008173ffffffffffffffffffffffffffffffffffffffff1634604051610de99061312e565b60006040518083038185875af1925050503d8060008114610e26576040519150601f19603f3d011682016040523d82523d6000602084013e610e2b565b606091505b5050905080610e66576040517fc4d8fa8700000000000000000000000000000000000000000000000000000000815260040160405180910390fd5b600060096000868152602001908152602001600020819055508173ffffffffffffffffffffffffffffffffffffffff163373ffffffffffffffffffffffffffffffffffffffff167fc7aa0cf9992b5b79aa4f226b4461466f1959225ab1c04756eb6aef047734236a8686604051610ede929190613143565b60405180910390a3505050610ef1611d31565b50565b600080610f0083611d3b565b9050600073ffffffffffffffffffffffffffffffffffffffff168173ffffffffffffffffffffffffffffffffffffffff1603610f71576040517f08c379a0000000000000000000000000000000000000000000000000000000008152600401610f68906131b8565b60405180910390fd5b80915050919050565b60008073ffffffffffffffffffffffffffffffffffffffff168273ffffffffffffffffffffffffffffffffffffffff1603610fea576040517f08c379a0000000000000000000000000000000000000000000000000000000008152600401610fe19061324a565b60405180910390fd5b600360008373ffffffffffffffffffffffffffffffffffffffff1673ffffffffffffffffffffffffffffffffffffffff168152602001908152602001600020549050919050565b611039611d78565b6110436000611df6565b565b61104d61272b565b600a60008473ffffffffffffffffffffffffffffffffffffffff1673ffffffffffffffffffffffffffffffffffffffff1681526020019081526020016000206000838152602001908152602001600020604051806040016040529081600082015481526020016001820160009054906101000a900473ffffffffffffffffffffffffffffffffffffffff1673ffffffffffffffffffffffffffffffffffffffff1673ffffffffffffffffffffffffffffffffffffffff1681525050905092915050565b6000600660009054906101000a900473ffffffffffffffffffffffffffffffffffffffff16905090565b3373ffffffffffffffffffffffffffffffffffffffff1661115a83610ef4565b73ffffffffffffffffffffffffffffffffffffffff16146111a7576040517f30cd747100000000000000000000000000000000000000000000000000000000815260040160405180910390fd5b600081116111e1576040517fe1abbfc500000000000000000000000000000000000000000000000000000000815260040160405180910390fd5b60006009600084815260200190815260200160002054111561123c5730826040517f4a5568d5000000000000000000000000000000000000000000000000000000008152600401611233929190612f94565b60405180910390fd5b806009600084815260200190815260200160002081905550813373ffffffffffffffffffffffffffffffffffffffff167fd2f42f494e44e3271efd37d0e812d571ad801f1c92e6c2087659b48739e9d3f48360405161129b9190612a96565b60405180910390a35050565b6060600180546112b690612e3f565b80601f01602080910402602001604051908101604052809291908181526020018280546112e290612e3f565b801561132f5780601f106113045761010080835404028352916020019161132f565b820191906000526020600020905b81548152906001019060200180831161131257829003601f168201915b5050505050905090565b60085481565b61135161134a611875565b8383611ebc565b5050565b611366611360611875565b83611954565b6113a5576040517f08c379a000000000000000000000000000000000000000000000000000000000815260040161139c906130a6565b60405180910390fd5b6113b184848484612028565b50505050565b60606113c28261182a565b60006113cc612084565b905060008151116113ec5760405180602001604052806000815250611417565b806113f68461209b565b6040516020016114079291906132a6565b6040516020818303038152906040525b915050919050565b60096020528060005260406000206000915090505481565b6000600560008473ffffffffffffffffffffffffffffffffffffffff1673ffffffffffffffffffffffffffffffffffffffff16815260200190815260200160002060008373ffffffffffffffffffffffffffffffffffffffff1673ffffffffffffffffffffffffffffffffffffffff16815260200190815260200160002060009054906101000a900460ff16905092915050565b6114d3611d78565b600073ffffffffffffffffffffffffffffffffffffffff168173ffffffffffffffffffffffffffffffffffffffff1603611542576040517f08c379a00000000000000000000000000000000000000000000000000000000081526004016115399061333c565b60405180910390fd5b61154b81611df6565b50565b816000600a60003073ffffffffffffffffffffffffffffffffffffffff1673ffffffffffffffffffffffffffffffffffffffff1681526020019081526020016000206000838152602001908152602001600020604051806040016040529081600082015481526020016001820160009054906101000a900473ffffffffffffffffffffffffffffffffffffffff1673ffffffffffffffffffffffffffffffffffffffff1673ffffffffffffffffffffffffffffffffffffffff1681525050905060008160000151116116595730826040517f6831488c000000000000000000000000000000000000000000000000000000008152600401611650929190612f94565b60405180910390fd5b611661611ce2565b833373ffffffffffffffffffffffffffffffffffffffff1661168282610ef4565b73ffffffffffffffffffffffffffffffffffffffff16146116cf576040517f30cd747100000000000000000000000000000000000000000000000000000000815260040160405180910390fd5b60008411611709576040517fe1abbfc500000000000000000000000000000000000000000000000000000000815260040160405180910390fd5b83600a60008873ffffffffffffffffffffffffffffffffffffffff1673ffffffffffffffffffffffffffffffffffffffff168152602001908152602001600020600087815260200190815260200160002060000181905550843373ffffffffffffffffffffffffffffffffffffffff167fd2f42f494e44e3271efd37d0e812d571ad801f1c92e6c2087659b48739e9d3f4866040516117a89190612a96565b60405180910390a3506117b9611d31565b5050505050565b60007f01ffc9a7000000000000000000000000000000000000000000000000000000007bffffffffffffffffffffffffffffffffffffffffffffffffffffffff1916827bffffffffffffffffffffffffffffffffffffffffffffffffffffffff1916149050919050565b61183381612169565b611872576040517f08c379a0000000000000000000000000000000000000000000000000000000008152600401611869906131b8565b60405180910390fd5b50565b600033905090565b816004600083815260200190815260200160002060006101000a81548173ffffffffffffffffffffffffffffffffffffffff021916908373ffffffffffffffffffffffffffffffffffffffff160217905550808273ffffffffffffffffffffffffffffffffffffffff166118f083610ef4565b73ffffffffffffffffffffffffffffffffffffffff167f8c5be1e5ebec7d5bd14f71427d1e84f3dd0314c0f7b2291e5b200ac8c7c3b92560405160405180910390a45050565b6119508282604051806020016040528060008152506121aa565b5050565b60008061196083610ef4565b90508073ffffffffffffffffffffffffffffffffffffffff168473ffffffffffffffffffffffffffffffffffffffff1614806119a257506119a18185611437565b5b806119e057508373ffffffffffffffffffffffffffffffffffffffff166119c8846107b1565b73ffffffffffffffffffffffffffffffffffffffff16145b91505092915050565b8273ffffffffffffffffffffffffffffffffffffffff16611a0982610ef4565b73ffffffffffffffffffffffffffffffffffffffff1614611a5f576040517f08c379a0000000000000000000000000000000000000000000000000000000008152600401611a56906133ce565b60405180910390fd5b600073ffffffffffffffffffffffffffffffffffffffff168273ffffffffffffffffffffffffffffffffffffffff1603611ace576040517f08c379a0000000000000000000000000000000000000000000000000000000008152600401611ac590613460565b60405180910390fd5b611adb8383836001612205565b8273ffffffffffffffffffffffffffffffffffffffff16611afb82610ef4565b73ffffffffffffffffffffffffffffffffffffffff1614611b51576040517f08c379a0000000000000000000000000000000000000000000000000000000008152600401611b48906133ce565b60405180910390fd5b6004600082815260200190815260200160002060006101000a81549073ffffffffffffffffffffffffffffffffffffffff02191690556001600360008573ffffffffffffffffffffffffffffffffffffffff1673ffffffffffffffffffffffffffffffffffffffff168152602001908152602001600020600082825403925050819055506001600360008473ffffffffffffffffffffffffffffffffffffffff1673ffffffffffffffffffffffffffffffffffffffff16815260200190815260200160002060008282540192505081905550816002600083815260200190815260200160002060006101000a81548173ffffffffffffffffffffffffffffffffffffffff021916908373ffffffffffffffffffffffffffffffffffffffff160217905550808273ffffffffffffffffffffffffffffffffffffffff168473ffffffffffffffffffffffffffffffffffffffff167fddf252ad1be2c89b69c2b068fc378daa952ba7f163c4a11628f55a4df523b3ef60405160405180910390a4611cdd838383600161220b565b505050565b600260075403611d27576040517f08c379a0000000000000000000000000000000000000000000000000000000008152600401611d1e906134cc565b60405180910390fd5b6002600781905550565b6001600781905550565b60006002600083815260200190815260200160002060009054906101000a900473ffffffffffffffffffffffffffffffffffffffff169050919050565b611d80611875565b73ffffffffffffffffffffffffffffffffffffffff16611d9e611110565b73ffffffffffffffffffffffffffffffffffffffff1614611df4576040517f08c379a0000000000000000000000000000000000000000000000000000000008152600401611deb90613538565b60405180910390fd5b565b6000600660009054906101000a900473ffffffffffffffffffffffffffffffffffffffff16905081600660006101000a81548173ffffffffffffffffffffffffffffffffffffffff021916908373ffffffffffffffffffffffffffffffffffffffff1602179055508173ffffffffffffffffffffffffffffffffffffffff168173ffffffffffffffffffffffffffffffffffffffff167f8be0079c531659141344cd1fd0a4f28419497f9722a3daafe3b4186f6b6457e060405160405180910390a35050565b8173ffffffffffffffffffffffffffffffffffffffff168373ffffffffffffffffffffffffffffffffffffffff1603611f2a576040517f08c379a0000000000000000000000000000000000000000000000000000000008152600401611f21906135a4565b60405180910390fd5b80600560008573ffffffffffffffffffffffffffffffffffffffff1673ffffffffffffffffffffffffffffffffffffffff16815260200190815260200160002060008473ffffffffffffffffffffffffffffffffffffffff1673ffffffffffffffffffffffffffffffffffffffff16815260200190815260200160002060006101000a81548160ff0219169083151502179055508173ffffffffffffffffffffffffffffffffffffffff168373ffffffffffffffffffffffffffffffffffffffff167f17307eab39ab6107e8899845ad3d59bd9653f200f220920489ca2b5937696c318360405161201b919061280f565b60405180910390a3505050565b6120338484846119e9565b61203f84848484612211565b61207e576040517f08c379a000000000000000000000000000000000000000000000000000000000815260040161207590613636565b60405180910390fd5b50505050565b606060405180602001604052806000815250905090565b6060600060016120aa84612398565b01905060008167ffffffffffffffff8111156120c9576120c8612bcf565b5b6040519080825280601f01601f1916602001820160405280156120fb5781602001600182028036833780820191505090505b509050600082602001820190505b60011561215e578080600190039150507f3031323334353637383961626364656600000000000000000000000000000000600a86061a8153600a858161215257612151613656565b5b04945060008503612109575b819350505050919050565b60008073ffffffffffffffffffffffffffffffffffffffff1661218b83611d3b565b73ffffffffffffffffffffffffffffffffffffffff1614159050919050565b6121b483836124eb565b6121c16000848484612211565b612200576040517f08c379a00000000000000000000000000000000000000000000000000000000081526004016121f790613636565b60405180910390fd5b505050565b50505050565b50505050565b60006122328473ffffffffffffffffffffffffffffffffffffffff16612708565b1561238b578373ffffffffffffffffffffffffffffffffffffffff1663150b7a0261225b611875565b8786866040518563ffffffff1660e01b815260040161227d94939291906136da565b6020604051808303816000875af19250505080156122b957506040513d601f19601f820116820180604052508101906122b6919061373b565b60015b61233b573d80600081146122e9576040519150601f19603f3d011682016040523d82523d6000602084013e6122ee565b606091505b506000815103612333576040517f08c379a000000000000000000000000000000000000000000000000000000000815260040161232a90613636565b60405180910390fd5b805181602001fd5b63150b7a0260e01b7bffffffffffffffffffffffffffffffffffffffffffffffffffffffff1916817bffffffffffffffffffffffffffffffffffffffffffffffffffffffff191614915050612390565b600190505b949350505050565b600080600090507a184f03e93ff9f4daa797ed6e38ed64bf6a1f01000000000000000083106123f6577a184f03e93ff9f4daa797ed6e38ed64bf6a1f01000000000000000083816123ec576123eb613656565b5b0492506040810190505b6d04ee2d6d415b85acef81000000008310612433576d04ee2d6d415b85acef8100000000838161242957612428613656565b5b0492506020810190505b662386f26fc10000831061246257662386f26fc10000838161245857612457613656565b5b0492506010810190505b6305f5e100831061248b576305f5e100838161248157612480613656565b5b0492506008810190505b61271083106124b05761271083816124a6576124a5613656565b5b0492506004810190505b606483106124d357606483816124c9576124c8613656565b5b0492506002810190505b600a83106124e2576001810190505b80915050919050565b600073ffffffffffffffffffffffffffffffffffffffff168273ffffffffffffffffffffffffffffffffffffffff160361255a576040517f08c379a0000000000000000000000000000000000000000000000000000000008152600401612551906137b4565b60405180910390fd5b61256381612169565b156125a3576040517f08c379a000000000000000000000000000000000000000000000000000000000815260040161259a90613820565b60405180910390fd5b6125b1600083836001612205565b6125ba81612169565b156125fa576040517f08c379a00000000000000000000000000000000000000000000000000000000081526004016125f190613820565b60405180910390fd5b6001600360008473ffffffffffffffffffffffffffffffffffffffff1673ffffffffffffffffffffffffffffffffffffffff16815260200190815260200160002060008282540192505081905550816002600083815260200190815260200160002060006101000a81548173ffffffffffffffffffffffffffffffffffffffff021916908373ffffffffffffffffffffffffffffffffffffffff160217905550808273ffffffffffffffffffffffffffffffffffffffff16600073ffffffffffffffffffffffffffffffffffffffff167fddf252ad1be2c89b69c2b068fc378daa952ba7f163c4a11628f55a4df523b3ef60405160405180910390a461270460008383600161220b565b5050565b6000808273ffffffffffffffffffffffffffffffffffffffff163b119050919050565b604051806040016040528060008152602001600073ffffffffffffffffffffffffffffffffffffffff1681525090565b6000604051905090565b600080fd5b600080fd5b60007fffffffff0000000000000000000000000000000000000000000000000000000082169050919050565b6127a48161276f565b81146127af57600080fd5b50565b6000813590506127c18161279b565b92915050565b6000602082840312156127dd576127dc612765565b5b60006127eb848285016127b2565b91505092915050565b60008115159050919050565b612809816127f4565b82525050565b60006020820190506128246000830184612800565b92915050565b600081519050919050565b600082825260208201905092915050565b60005b83811015612864578082015181840152602081019050612849565b60008484015250505050565b6000601f19601f8301169050919050565b600061288c8261282a565b6128968185612835565b93506128a6818560208601612846565b6128af81612870565b840191505092915050565b600060208201905081810360008301526128d48184612881565b905092915050565b6000819050919050565b6128ef816128dc565b81146128fa57600080fd5b50565b60008135905061290c816128e6565b92915050565b60006020828403121561292857612927612765565b5b6000612936848285016128fd565b91505092915050565b600073ffffffffffffffffffffffffffffffffffffffff82169050919050565b600061296a8261293f565b9050919050565b61297a8161295f565b82525050565b60006020820190506129956000830184612971565b92915050565b6129a48161295f565b81146129af57600080fd5b50565b6000813590506129c18161299b565b92915050565b600080604083850312156129de576129dd612765565b5b60006129ec858286016129b2565b92505060206129fd858286016128fd565b9150509250929050565b600080600060608486031215612a2057612a1f612765565b5b6000612a2e868287016129b2565b9350506020612a3f868287016129b2565b9250506040612a50868287016128fd565b9150509250925092565b600060208284031215612a7057612a6f612765565b5b6000612a7e848285016129b2565b91505092915050565b612a90816128dc565b82525050565b6000602082019050612aab6000830184612a87565b92915050565b612aba816128dc565b82525050565b612ac98161295f565b82525050565b604082016000820151612ae56000850182612ab1565b506020820151612af86020850182612ac0565b50505050565b6000604082019050612b136000830184612acf565b92915050565b60008060408385031215612b3057612b2f612765565b5b6000612b3e858286016128fd565b9250506020612b4f858286016128fd565b9150509250929050565b612b62816127f4565b8114612b6d57600080fd5b50565b600081359050612b7f81612b59565b92915050565b60008060408385031215612b9c57612b9b612765565b5b6000612baa858286016129b2565b9250506020612bbb85828601612b70565b9150509250929050565b600080fd5b600080fd5b7f4e487b7100000000000000000000000000000000000000000000000000000000600052604160045260246000fd5b612c0782612870565b810181811067ffffffffffffffff82111715612c2657612c25612bcf565b5b80604052505050565b6000612c3961275b565b9050612c458282612bfe565b919050565b600067ffffffffffffffff821115612c6557612c64612bcf565b5b612c6e82612870565b9050602081019050919050565b82818337600083830152505050565b6000612c9d612c9884612c4a565b612c2f565b905082815260208101848484011115612cb957612cb8612bca565b5b612cc4848285612c7b565b509392505050565b600082601f830112612ce157612ce0612bc5565b5b8135612cf1848260208601612c8a565b91505092915050565b60008060008060808587031215612d1457612d13612765565b5b6000612d22878288016129b2565b9450506020612d33878288016129b2565b9350506040612d44878288016128fd565b925050606085013567ffffffffffffffff811115612d6557612d6461276a565b5b612d7187828801612ccc565b91505092959194509250565b60008060408385031215612d9457612d93612765565b5b6000612da2858286016129b2565b9250506020612db3858286016129b2565b9150509250929050565b600080600060608486031215612dd657612dd5612765565b5b6000612de4868287016129b2565b9350506020612df5868287016128fd565b9250506040612e06868287016128fd565b9150509250925092565b7f4e487b7100000000000000000000000000000000000000000000000000000000600052602260045260246000fd5b60006002820490506001821680612e5757607f821691505b602082108103612e6a57612e69612e10565b5b50919050565b7f4552433732313a20617070726f76616c20746f2063757272656e74206f776e6560008201527f7200000000000000000000000000000000000000000000000000000000000000602082015250565b6000612ecc602183612835565b9150612ed782612e70565b604082019050919050565b60006020820190508181036000830152612efb81612ebf565b9050919050565b7f4552433732313a20617070726f76652063616c6c6572206973206e6f7420746f60008201527f6b656e206f776e6572206f7220617070726f76656420666f7220616c6c000000602082015250565b6000612f5e603d83612835565b9150612f6982612f02565b604082019050919050565b60006020820190508181036000830152612f8d81612f51565b9050919050565b6000604082019050612fa96000830185612971565b612fb66020830184612a87565b9392505050565b7f4e487b7100000000000000000000000000000000000000000000000000000000600052601160045260246000fd5b6000612ff7826128dc565b91507fffffffffffffffffffffffffffffffffffffffffffffffffffffffffffffffff820361302957613028612fbd565b5b600182019050919050565b7f4552433732313a2063616c6c6572206973206e6f7420746f6b656e206f776e6560008201527f72206f7220617070726f76656400000000000000000000000000000000000000602082015250565b6000613090602d83612835565b915061309b82613034565b604082019050919050565b600060208201905081810360008301526130bf81613083565b9050919050565b60006060820190506130db6000830186612971565b6130e86020830185612a87565b6130f56040830184612a87565b949350505050565b600081905092915050565b50565b60006131186000836130fd565b915061312382613108565b600082019050919050565b60006131398261310b565b9150819050919050565b60006040820190506131586000830185612a87565b6131656020830184612a87565b9392505050565b7f4552433732313a20696e76616c696420746f6b656e2049440000000000000000600082015250565b60006131a2601883612835565b91506131ad8261316c565b602082019050919050565b600060208201905081810360008301526131d181613195565b9050919050565b7f4552433732313a2061646472657373207a65726f206973206e6f74206120766160008201527f6c6964206f776e65720000000000000000000000000000000000000000000000602082015250565b6000613234602983612835565b915061323f826131d8565b604082019050919050565b6000602082019050818103600083015261326381613227565b9050919050565b600081905092915050565b60006132808261282a565b61328a818561326a565b935061329a818560208601612846565b80840191505092915050565b60006132b28285613275565b91506132be8284613275565b91508190509392505050565b7f4f776e61626c653a206e6577206f776e657220697320746865207a65726f206160008201527f6464726573730000000000000000000000000000000000000000000000000000602082015250565b6000613326602683612835565b9150613331826132ca565b604082019050919050565b6000602082019050818103600083015261335581613319565b9050919050565b7f4552433732313a207472616e736665722066726f6d20696e636f72726563742060008201527f6f776e6572000000000000000000000000000000000000000000000000000000602082015250565b60006133b8602583612835565b91506133c38261335c565b604082019050919050565b600060208201905081810360008301526133e7816133ab565b9050919050565b7f4552433732313a207472616e7366657220746f20746865207a65726f2061646460008201527f7265737300000000000000000000000000000000000000000000000000000000602082015250565b600061344a602483612835565b9150613455826133ee565b604082019050919050565b600060208201905081810360008301526134798161343d565b9050919050565b7f5265656e7472616e637947756172643a207265656e7472616e742063616c6c00600082015250565b60006134b6601f83612835565b91506134c182613480565b602082019050919050565b600060208201905081810360008301526134e5816134a9565b9050919050565b7f4f776e61626c653a2063616c6c6572206973206e6f7420746865206f776e6572600082015250565b6000613522602083612835565b915061352d826134ec565b602082019050919050565b6000602082019050818103600083015261355181613515565b9050919050565b7f4552433732313a20617070726f766520746f2063616c6c657200000000000000600082015250565b600061358e601983612835565b915061359982613558565b602082019050919050565b600060208201905081810360008301526135bd81613581565b9050919050565b7f4552433732313a207472616e7366657220746f206e6f6e20455243373231526560008201527f63656976657220696d706c656d656e7465720000000000000000000000000000602082015250565b6000613620603283612835565b915061362b826135c4565b604082019050919050565b6000602082019050818103600083015261364f81613613565b9050919050565b7f4e487b7100000000000000000000000000000000000000000000000000000000600052601260045260246000fd5b600081519050919050565b600082825260208201905092915050565b60006136ac82613685565b6136b68185613690565b93506136c6818560208601612846565b6136cf81612870565b840191505092915050565b60006080820190506136ef6000830187612971565b6136fc6020830186612971565b6137096040830185612a87565b818103606083015261371b81846136a1565b905095945050505050565b6000815190506137358161279b565b92915050565b60006020828403121561375157613750612765565b5b600061375f84828501613726565b91505092915050565b7f4552433732313a206d696e7420746f20746865207a65726f2061646472657373600082015250565b600061379e602083612835565b91506137a982613768565b602082019050919050565b600060208201905081810360008301526137cd81613791565b9050919050565b7f4552433732313a20746f6b656e20616c7265616479206d696e74656400000000600082015250565b600061380a601c83612835565b9150613815826137d4565b602082019050919050565b60006020820190508181036000830152613839816137fd565b905091905056fea2646970667358221220745bfa2ed1953b0e53635f1f3135ab21fbde4ee8f49f2e510c44839cca39c77464736f6c634300081c0033",
  "devdoc": {
    "events": {
      "Approval(address,address,uint256)": {
        "details": "Emitted when `owner` enables `approved` to manage the `tokenId` token."
      },
      "ApprovalForAll(address,address,bool)": {
        "details": "Emitted when `owner` enables or disables (`approved`) `operator` to manage all of its assets."
      },
      "Transfer(address,address,uint256)": {
        "details": "Emitted when `tokenId` token is transferred from `from` to `to`."
      }
    },
    "kind": "dev",
    "methods": {
      "approve(address,uint256)": {
        "details": "See {IERC721-approve}."
      },
      "balanceOf(address)": {
        "details": "See {IERC721-balanceOf}."
      },
      "getApproved(uint256)": {
        "details": "See {IERC721-getApproved}."
      },
      "isApprovedForAll(address,address)": {
        "details": "See {IERC721-isApprovedForAll}."
      },
      "name()": {
        "details": "See {IERC721Metadata-name}."
      },
      "owner()": {
        "details": "Returns the address of the current owner."
      },
      "ownerOf(uint256)": {
        "details": "See {IERC721-ownerOf}."
      },
      "renounceOwnership()": {
        "details": "Leaves the contract without owner. It will not be possible to call `onlyOwner` functions. Can only be called by the current owner. NOTE: Renouncing ownership will leave the contract without an owner, thereby disabling any functionality that is only available to the owner."
      },
      "safeTransferFrom(address,address,uint256)": {
        "details": "See {IERC721-safeTransferFrom}."
      },
      "safeTransferFrom(address,address,uint256,bytes)": {
        "details": "See {IERC721-safeTransferFrom}."
      },
      "setApprovalForAll(address,bool)": {
        "details": "See {IERC721-setApprovalForAll}."
      },
      "supportsInterface(bytes4)": {
        "details": "See {IERC165-supportsInterface}."
      },
      "symbol()": {
        "details": "See {IERC721Metadata-symbol}."
      },
      "tokenURI(uint256)": {
        "details": "See {IERC721Metadata-tokenURI}."
      },
      "transferFrom(address,address,uint256)": {
        "details": "See {IERC721-transferFrom}."
      },
      "transferOwnership(address)": {
        "details": "Transfers ownership of the contract to a new account (`newOwner`). Can only be called by the current owner."
      }
    },
    "version": 1
  },
  "userdoc": {
    "kind": "user",
    "methods": {},
    "version": 1
  },
  "storageLayout": {
    "storage": [
      {
        "astId": 203,
        "contract": "contracts/NFT-market.sol:NFTMarketplace",
        "label": "_name",
        "offset": 0,
        "slot": "0",
        "type": "t_string_storage"
      },
      {
        "astId": 205,
        "contract": "contracts/NFT-market.sol:NFTMarketplace",
        "label": "_symbol",
        "offset": 0,
        "slot": "1",
        "type": "t_string_storage"
      },
      {
        "astId": 209,
        "contract": "contracts/NFT-market.sol:NFTMarketplace",
        "label": "_owners",
        "offset": 0,
        "slot": "2",
        "type": "t_mapping(t_uint256,t_address)"
      },
      {
        "astId": 213,
        "contract": "contracts/NFT-market.sol:NFTMarketplace",
        "label": "_balances",
        "offset": 0,
        "slot": "3",
        "type": "t_mapping(t_address,t_uint256)"
      },
      {
        "astId": 217,
        "contract": "contracts/NFT-market.sol:NFTMarketplace",
        "label": "_tokenApprovals",
        "offset": 0,
        "slot": "4",
        "type": "t_mapping(t_uint256,t_address)"
      },
      {
        "astId": 223,
        "contract": "contracts/NFT-market.sol:NFTMarketplace",
        "label": "_operatorApprovals",
        "offset": 0,
        "slot": "5",
        "type": "t_mapping(t_address,t_mapping(t_address,t_bool))"
      },
      {
        "astId": 7,
        "contract": "contracts/NFT-market.sol:NFTMarketplace",
        "label": "_owner",
        "offset": 0,
        "slot": "6",
        "type": "t_address"
      },
      {
        "astId": 123,
        "contract": "contracts/NFT-market.sol:NFTMarketplace",
        "label": "_status",
        "offset": 0,
        "slot": "7",
        "type": "t_uint256"
      },
      {
        "astId": 2913,
        "contract": "contracts/NFT-market.sol:NFTMarketplace",
        "label": "tokenCount",
        "offset": 0,
        "slot": "8",
        "type": "t_uint256"
      },
      {
        "astId": 2920,
        "contract": "contracts/NFT-market.sol:NFTMarketplace",
        "label": "tokenPrices",
        "offset": 0,
        "slot": "9",
        "type": "t_mapping(t_uint256,t_uint256)"
      },
      {
        "astId": 2927,
        "contract": "contracts/NFT-market.sol:NFTMarketplace",
        "label": "s_listings",
        "offset": 0,
        "slot": "10",
        "type": "t_mapping(t_address,t_mapping(t_uint256,t_struct(Listing)2911_storage))"
      },
      {
        "astId": 2931,
        "contract": "contracts/NFT-market.sol:NFTMarketplace",
        "label": "s_proceeds",
        "offset": 0,
        "slot": "11",
        "type": "t_mapping(t_address,t_uint256)"
      }
    ],
    "types": {
      "t_address": {
        "encoding": "inplace",
        "label": "address",
        "numberOfBytes": "20"
      },
      "t_bool": {
        "encoding": "inplace",
        "label": "bool",
        "numberOfBytes": "1"
      },
      "t_mapping(t_address,t_bool)": {
        "encoding": "mapping",
        "key": "t_address",
        "label": "mapping(address => bool)",
        "numberOfBytes": "32",
        "value": "t_bool"
      },
      "t_mapping(t_address,t_mapping(t_address,t_bool))": {
        "encoding": "mapping",
        "key": "t_address",
        "label": "mapping(address => mapping(address => bool))",
        "numberOfBytes": "32",
        "value": "t_mapping(t_address,t_bool)"
      },
      "t_mapping(t_address,t_mapping(t_uint256,t_struct(Listing)2911_storage))": {
        "encoding": "mapping",
        "key": "t_address",
        "label": "mapping(address => mapping(uint256 => struct NFTMarketplace.Listing))",
        "numberOfBytes": "32",
        "value": "t_mapping(t_uint256,t_struct(Listing)2911_storage)"
      },
      "t_mapping(t_address,t_uint256)": {
        "encoding": "mapping",
        "key": "t_address",
        "label": "mapping(address => uint256)",
        "numberOfBytes": "32",
        "value": "t_uint256"
      },
      "t_mapping(t_uint256,t_address)": {
        "encoding": "mapping",
        "key": "t_uint256",
        "label": "mapping(uint256 => address)",
        "numberOfBytes": "32",
        "value": "t_address"
      },
      "t_mapping(t_uint256,t_struct(Listing)2911_storage)": {
        "encoding": "mapping",
        "key": "t_uint256",
        "label": "mapping(uint256 => struct NFTMarketplace.Listing)",
        "numberOfBytes": "32",
        "value": "t_struct(Listing)2911_storage"
      },
      "t_mapping(t_uint256,t_uint256)": {
        "encoding": "mapping",
        "key": "t_uint256",
        "label": "mapping(uint256 => uint256)",
        "numberOfBytes": "32",
        "value": "t_uint256"
      },
      "t_string_storage": {
        "encoding": "bytes",
        "label": "string",
        "numberOfBytes": "32"
      },
      "t_struct(Listing)2911_storage": {
        "encoding": "inplace",
        "label": "struct NFTMarketplace.Listing",
        "members": [
          {
            "astId": 2908,
            "contract": "contracts/NFT-market.sol:NFTMarketplace",
            "label": "price",
            "offset": 0,
            "slot": "0",
            "type": "t_uint256"
          },
          {
            "astId": 2910,
            "contract": "contracts/NFT-market.sol:NFTMarketplace",
            "label": "seller",
            "offset": 0,
            "slot": "1",
            "type": "t_address"
          }
        ],
        "numberOfBytes": "64"
      },
      "t_uint256": {
        "encoding": "inplace",
        "label": "uint256",
        "numberOfBytes": "32"
      }
    }
  }
}